:03000000020DDF0F
:0C0DDF00787FE4F6D8FD75810E020E2628
:090EFE00010D00010E2D010C0094
:030F0E00DFFE22E1
:020E6B00AE07D0
:100E6D007D08C2907F27120F0EAF051DEF600FEEAC
:100E7D001392907F24120F0EEEC313FE80EBC290DF
:0C0E8D007F30120F0ED2907F2E020F0E4D
:100E9900E4FF120EDE120EF47F1B120EAD7F7A12E2
:040EA9000EADE4FFA7
:060EAD002092FD020E6B15
:050EEF00E4FF120EDE1D
:0A0EF4007F1B120EAD7F40020EAD11
:100EDE00AC077F1B120EAD7F51120EADAF04020E8A
:010EEE00AD56
:040EC900C2997F0A41
:100ECD00AC077F1B120EAD7F6C120EADAF04020E80
:010EDD00AD67
:100EB300758920758DFD758BFDD28ED29CC29FD214
:060EC3009ED2AFD2AC226A
:10080000E4F508F509F50AF50BFBFA120EB320B36F
:10081000FD120EEF120EEF7F1B120EAD7F6A120E4D
:10082000A87F01120EA87F01120EA87F7F120EA8CA
:100830007F3F120EAD120EA17F04120EA87F101280
:100840000EAD7F1B120EAD7F33120EAD7F20120E48
:10085000AD7F21120EAD7F22120EAD7F23120EADA1
:100860007F24120EAD7F25120EAD7F26120EAD7FB6
:1008700027120EAD7F28120EAD7F29120EAD120E7B
:10088000A17F10120EA87F28120EAD7F2A120EAD86
:100890007F2B120EAD7F2C120EAD7F2D120EAD7F71
:1008A0002E120EAD7F2F120EAD7F30120EAD7F31A6
:1008B000120EAD7F1E120ECD120EEFD297120EA1A8
:1008C0007F09120EA87F02120EAD7F1B120EAD7FA4
:1008D00033120EAD7F43120EAD7F44120EAD7F4634
:1008E000120EAD7F45120EAD7F4C120EAD7F4D1234
:1008F0000EAD7F4E120EAD7F4F120EAD7F50120E19
:10090000AD7F51120EAD7F52120EAD7F53120EAD60
:10091000120EA17F09120EA87F1E120EAD7F431288
:100920000EAD7F44120EAD7F47120EAD7F45120E05
:10093000AD7F54120EAD7F55120EAD7F56120EAD27
:100940007F57120EAD7F58120EAD7F59120EAD7F3C
:100950005A120EAD7F5E120EAD30B70C30B609E5FF
:100960000EB4BFF57A007B0130B703020A3C120EC9
:10097000997F09120EA87F02120EAD7F1B120EADD9
:100980007F33120EAD7F43120EAD7F44120EAD7F4A
:100990004B120EAD7F45120EAD7F7D120EAD7F7EE8
:1009A000120EAD7F7F120EAD7F80120EAD7F8112D1
:1009B0000EAD7F82120EAD7F83120EAD7F84120EBC
:1009C000AD7F74120EAD7F43120EAD7F44120EAD9B
:1009D0007F46120EAD7F45120EAD7F85120EAD7FA4
:1009E00086120EAD7F87120EAD7F88120EAD7F8905
:1009F000120EAD7F8A120EAD7F74120EAD7F4312C0
:100A00000EAD7F44120EAD7F47120EAD7F45120E24
:100A1000AD7F8B120EAD7F8C120EAD7F8D120EADA1
:100A20007F8E120EAD7F8F120EAD7F90120EAD7FB6
:100A30009A120EAD20B2030208B880F830B609EB66
:100A400064014A60030208B8E4FAFB120E9A7F1CA4
:100A5000120EA87F15120EAD7F1B120EAD7F331242
:100A60000EAD7F2E120EAD7F2F120EAD7F99120E9E
:100A7000AD7FE8120EAD7FE8120EAD7FE8120EAD2D
:100A80007FE8120EADE50E64CF607630B273120EC1
:100A9000A17F40120EA87F15120EAD7F0A120ECD57
:100AA0007FE8120EAD7599EE3099FD120EC97FE800
:100AB000120EADE50E64CF600320B204C2988041EF
:100AC0007599EE3099FD120EC97FE8120EADE50E54
:100AD00064CF600320B204C29880267599EE3099E5
:100AE000FD120EC97FE8120EADE50E64CF60032043
:100AF000B204C298800B7599EE3099FDC299020A32
:100B00008520B2030208B8C298120E997F09120E0E
:100B1000A8E4FF120EAD7F1B120EAD7F33120EAD97
:100B20007F6E120EAD7F6F120EAD7F70120EAD7F15
:100B300071120EAD7F72120EAD7F73120EAD7F7407
:100B4000120EAD7F75120EAD7F76120EAD7F77124D
:100B50000EAD7F78120EAD7F79120EAD120EA17F11
:100B600016120EA87F1C120EAD7F43120EAD7F44ED
:100B7000120EAD7F49120EAD7F45120EAD7F7B1276
:100B80000EAD7F7C120EAD120EA17F16120EA87F45
:100B90002C120EAD7F43120EAD7F44120EAD7F4876
:100BA000120EAD7F45120EAD7F7A120EAD7F7B1215
:100BB0000EAD7F7C120EADC29730B40320B5FA3073
:100BC000B4030208B8120E997F09120EA8E4FF12AE
:100BD0000EAD7F1B120EAD7F33120EAD7F32120EA3
:100BE000AD7F33120EAD7F34120EAD7F35120EADD8
:100BF0007F36120EAD7F37120EAD7F38120EAD7FED
:100C000039120EAD7F3A020DCE20B203020DD43060
:100C1000B703020C9D7599BB3099FDC29920B3FDB5
:100C2000E50E64BD7F1B703E120EA37F08120EA856
:100C30007F10120EAD7F3D120EAD7F3E120EAD7FC6
:100C40009A120EAD7FA0120EAD7FA1120EAD7FA243
:100C5000120EAD7FA3120EAD7FA4120EAD7FA512B2
:100C60000EAD7FA68032120EA37F10120EA87F1049
:100C7000120EAD7F3B120EAD7F3C120EAD7F3D12CA
:100C80000EAD7F3E120EAD7F9A120EAD7F64120E36
:100C9000AD7F65120EAD7F66120EADC29830B60301
:100CA000020C097599AA3099FDC29920B3FD120E64
:100CB000A17F10120EA87F20120EAD7F3F120EAD45
:100CC0007F40120EAD7F41120EAD7F42120EAD7FFE
:100CD0009A120EADE50E75F00A84750800F509123A
:100CE0000EA17F48120EA87F26120EAD7F1B120E9A
:100CF000AD7F31120EADE5087055E509B40A00501C
:100D00004E900D08F8282873020D26020D2A020DB8
:100D10002E020D32020D36020D3A020D3E020D4238
:100D2000020D46020D4A7F3080227F31801E7F32C5
:100D3000801A7F3380167F3480127F35800E7F3695
:100D4000800A7F3780067F3880027F39120EADE53A
:100D50000E75F00A84AFF0750A008F0BE50A705526
:100D6000E50BB40A00504E900D6EF8282873020D62
:100D70008C020D90020D94020D98020D9C020DA0A4
:100D8000020DA4020DA8020DAC020DB07F3080222E
:100D90007F31801E7F32801A7F3380167F3480122D
:100DA0007F35800E7F36800A7F3780067F3880024D
:100DB0007F39120EAD120EA17F55120EA87F2012A0
:100DC0000EAD7F1B120EAD7F33120EAD7F69120E7A
:0F0DD000AD020C097599CC3099FDC2990208B893
:03002300020F08C1
:060F080085990EC298322B
:100DEB00020800E493A3F8E493A34003F68001F216
:100DFB0008DFF48029E493A3F85407240CC8C33309
:100E0B00C4540F4420C8834004F456800146F6DFD7
:100E1B00E4800B0102040810204080900EFEE47E5B
:100E2B00019360BCA3FF543F30E509541FFEE493CC
:100E3B00A360010ECF54C025E060A840B8E493A393
:100E4B00FAE493A3F8E493A3C8C582C8CAC583CABE
:100E5B00F0A3C8C582C8CAC583CADFE9DEE780BE76
:010F070000E9
:00000001FF
